{
  "contractName": "HelloContract",
  "abi": [
    {
      "constant": true,
      "inputs": [],
      "name": "GetMessage",
      "outputs": [
        {
          "name": "",
          "type": "string"
        }
      ],
      "payable": false,
      "stateMutability": "view",
      "type": "function",
      "signature": "0x03e33b53"
    }
  ],
  "bytecode": "0x6080604052606060405190810160405280602a8152602001610298602a913960009080519060200190610033929190610046565b5034801561004057600080fd5b506100eb565b828054600181600116156101000203166002900490600052602060002090601f016020900481019282601f1061008757805160ff19168380011785556100b5565b828001600101855582156100b5579182015b828111156100b4578251825591602001919060010190610099565b5b5090506100c291906100c6565b5090565b6100e891905b808211156100e45760008160009055506001016100cc565b5090565b90565b61019e806100fa6000396000f3fe608060405234801561001057600080fd5b5060043610610048576000357c01000000000000000000000000000000000000000000000000000000009004806303e33b531461004d575b600080fd5b6100556100d0565b6040518080602001828103825283818151815260200191508051906020019080838360005b8381101561009557808201518184015260208101905061007a565b50505050905090810190601f1680156100c25780820380516001836020036101000a031916815260200191505b509250505060405180910390f35b606060008054600181600116156101000203166002900480601f0160208091040260200160405190810160405280929190818152602001828054600181600116156101000203166002900480156101685780601f1061013d57610100808354040283529160200191610168565b820191906000526020600020905b81548152906001019060200180831161014b57829003601f168201915b505050505090509056fea165627a7a72305820021d15f54a70e7ff8b98d8052905a3e8924d85135abf647c4f11530177ba35d70029436f6e67726174756c6174696f6e732c20796f75206d6164652069742e2048656c6c6f20576f726c6421",
  "source": "pragma solidity ^0.5.0;\n\n\ncontract HelloContract {\n  //constructor() public {\n  //} \n  string message = \"Congratulations, you made it. Hello World!\";\n \n  function GetMessage() public view returns(string memory) {\n    return message;\n  }\n  \n  \n}\n",
  "sourcePath": "/Users/anandsinha/GitHub/Blockchain/Truffle-Hello/Hello-dApp/contracts/HelloContract.sol",
  "compiler": {
    "name": "solc",
    "version": "0.5.2+commit.1df8f40c.Emscripten.clang"
  },
  "schemaVersion": "3.0.3",
  "updatedAt": "2019-07-23T04:47:17.063Z",
  "devdoc": {
    "methods": {}
  },
  "userdoc": {
    "methods": {}
  }
}